:0300000002089E55
:0C089E00787FE4F6D8FD75810A0208E5B9
:1008000000420001004100540044007400640042B2
:100810000001004100540044008400740074004250
:100820000001004100B400840074006400C400A210
:10083000000100A100940074008400740074004260
:1008400000010041005400440074006400420001B3
:100850000041005400440084007400740042000110
:10086000004100B400840074006400C400A20001D0
:1008700000A1009400740084007400740000000063
:10088000FB03FB83FC0BFC43FCABFD08FD32FD814D
:0E089000FDC7FE05FE21FE55FE83FE99FEC04B
:0609D900010900010A0003
:04097900AB07AA0618
:10097D009000007C037DE8AF03AE021209A6C3E52B
:10098D00829FE5839E5011E4FFFE0FBF00010EEF25
:08099D0064784E70F5A380DBC5
:0109A500222F
:03001B000209B81F
:0D09B800C28E850A8B85098DB295D28E32D4
:0C09C500C2AFC28E758910D2ABD2AF2237
:10092A00E4F508E50825E02400F582E43408F583B7
:10093A00740193FD7003C28E22ED540FF9EDC45475
:10094A000FFD7004D28E801CED25E0247EF582E432
:10095A003408F583E493FA740193FBEAFF8F09EBF9
:0F096A00F50AD28EE9FF7E00120979050880B4E4
:0809D1001209C512092A80FB7E
:1008AA000209D1E493A3F8E493A34003F68001F28A
:1008BA0008DFF48029E493A3F85407240CC8C3334F
:1008CA00C4540F4420C8834004F456800146F6DF1E
:1008DA00E4800B01020408102040809009D9E47ECC
:1008EA00019360BCA3FF543F30E509541FFEE49313
:1008FA00A360010ECF54C025E060A840B8E493A3DA
:10090A00FAE493A3F8E493A3C8C582C8CAC583CA04
:10091A00F0A3C8C582C8CAC583CADFE9DEE780BEBC
:0109DF000017
:1009A600EF8DF0A4A8F0CF8CF0A428CE8DF0A42E65
:0209B600FE221F
:00000001FF
